{
  "contractName": "sendEth",
  "abi": [
    {
      "inputs": [
        {
          "internalType": "uint256",
          "name": "amount",
          "type": "uint256"
        },
        {
          "internalType": "address payable",
          "name": "to",
          "type": "address"
        }
      ],
      "name": "transfer",
      "outputs": [
        {
          "internalType": "bool",
          "name": "",
          "type": "bool"
        }
      ],
      "stateMutability": "payable",
      "type": "function"
    }
  ],
  "bytecode": "0x608060405234801561001057600080fd5b50610259806100206000396000f3fe60806040526004361061001e5760003560e01c8063b7760c8f14610023575b600080fd5b61003d60048036038101906100389190610167565b610053565b60405161004a91906101c2565b60405180910390f35b60008060008373ffffffffffffffffffffffffffffffffffffffff168560405161007c9061020e565b60006040518083038185875af1925050503d80600081146100b9576040519150601f19603f3d011682016040523d82523d6000602084013e6100be565b606091505b5091509150819250505092915050565b600080fd5b6000819050919050565b6100e6816100d3565b81146100f157600080fd5b50565b600081359050610103816100dd565b92915050565b600073ffffffffffffffffffffffffffffffffffffffff82169050919050565b600061013482610109565b9050919050565b61014481610129565b811461014f57600080fd5b50565b6000813590506101618161013b565b92915050565b6000806040838503121561017e5761017d6100ce565b5b600061018c858286016100f4565b925050602061019d85828601610152565b9150509250929050565b60008115159050919050565b6101bc816101a7565b82525050565b60006020820190506101d760008301846101b3565b92915050565b600081905092915050565b50565b60006101f86000836101dd565b9150610203826101e8565b600082019050919050565b6000610219826101eb565b915081905091905056fea26469706673582212204d584296cf4d047e8c0bcb706abbc2ff6224e1190dfa26dd6cab103ef214acd164736f6c634300080b0033",
  "immutableReferences": {},
  "source": "// SPDX-License-Identifier: MIT\npragma solidity >=0.4.22 <0.9.0;\n\ncontract sendEth {\n    function transfer(uint256 amount, address payable to)\n        public\n        payable\n        returns (bool)\n    {\n        (bool sent, bytes memory data) = to.call{value: amount}(\"\");\n        return sent;\n    }\n}\n",
  "sourcePath": "/home/ollie/Documents/vscodeprojects/contractsendeth/src/contracts/sendEthcontract.sol",
  "compiler": {
    "name": "solc",
    "version": "0.8.11+commit.d7f03943.Emscripten.clang"
  },
  "schemaVersion": "3.4.4",
  "updatedAt": "2022-02-13T22:19:02.823Z",
  "devdoc": {
    "kind": "dev",
    "methods": {},
    "version": 1
  },
  "userdoc": {
    "kind": "user",
    "methods": {},
    "version": 1
  }
}